{
  "contractName": "bank",
  "abi": [
    {
      "inputs": [],
      "payable": false,
      "stateMutability": "nonpayable",
      "type": "constructor"
    },
    {
      "constant": true,
      "inputs": [],
      "name": "getbal",
      "outputs": [
        {
          "internalType": "int256",
          "name": "",
          "type": "int256"
        }
      ],
      "payable": false,
      "stateMutability": "view",
      "type": "function"
    },
    {
      "constant": false,
      "inputs": [
        {
          "internalType": "int256",
          "name": "a",
          "type": "int256"
        }
      ],
      "name": "deposit",
      "outputs": [
        {
          "internalType": "int256",
          "name": "",
          "type": "int256"
        }
      ],
      "payable": false,
      "stateMutability": "nonpayable",
      "type": "function"
    },
    {
      "constant": false,
      "inputs": [
        {
          "internalType": "int256",
          "name": "a",
          "type": "int256"
        }
      ],
      "name": "withdraw",
      "outputs": [
        {
          "internalType": "int256",
          "name": "",
          "type": "int256"
        }
      ],
      "payable": false,
      "stateMutability": "nonpayable",
      "type": "function"
    }
  ],
  "bytecode": "0x608060405234801561001057600080fd5b50600160008190555061014a806100286000396000f3fe608060405234801561001057600080fd5b50600436106100415760003560e01c80631b3f4e07146100465780637e62eab814610064578063f04991f0146100a6575b600080fd5b61004e6100e8565b6040518082815260200191505060405180910390f35b6100906004803603602081101561007a57600080fd5b81019080803590602001909291905050506100f1565b6040518082815260200191505060405180910390f35b6100d2600480360360208110156100bc57600080fd5b8101908080359060200190929190505050610103565b6040518082815260200191505060405180910390f35b60008054905090565b60008160005403600081905550919050565b6000816000540160008190555091905056fea265627a7a723158200f94caa1cf135b38fafdbe5427935383a41acbf803e75fabc67b53b36a3df9b264736f6c63430005100032",
  "source": "// SPDX-License-Identifier: MIT\npragma solidity >=0.4.21 <0.7.0;\n\ncontract bank {\n    int256 bal;\n\n    constructor() public {\n        bal = 1;\n    }\n\n    function getbal() public view returns (int256) {\n        return bal;\n    }\n\n    function deposit(int256 a) public returns (int256) {\n        bal = bal + a;\n    }\n\n    function withdraw(int256 a) public returns (int256) {\n        bal = bal - a;\n    }\n}\n",
  "sourcePath": "E:\\balance\\contracts\\bank.sol",
  "compiler": {
    "name": "solc",
    "version": "0.5.16+commit.9c3226ce.Emscripten.clang"
  },
  "schemaVersion": "3.4.3",
  "updatedAt": "2021-09-19T20:19:09.675Z",
  "networkType": "ethereum",
  "devdoc": {
    "methods": {}
  },
  "userdoc": {
    "methods": {}
  }
}